:020000020000FC
:040000000C94280034
:10004C000C94680008E00EBF0FEF0DBF00E000E05D
:10005C000093C5000CE00093C40008E10093C100BC
:10006C0006E00093C20009E426D000E224D009E4A3
:10007C0022D000E220D004E51ED000E21CD000E229
:10008C001AD00BE418D008E616D001E614D002E71B
:10009C0012D001E610D007E60ED000E70CD005E731
:1000AC000AD002E708D000E206D00DE004D00AE046
:1000BC0002D0D9CF0AC04091C00045FFFCCF0093BD
:0C00CC00C60008950093C6001895FFCFF1
:00000001FF
