:020000040800F2
:1000000000060020ED000008F1000008F3000008E1
:10001000F5000008F7000008F900000800000000E3
:10002000000000000000000000000000FB000008CD
:10003000FD00000800000000FF00000801010008AA
:100040000301000803010008030100080301000880
:100050000301000803010008030100080301000870
:100060000301000803010008030100080301000860
:100070000301000803010008030100080301000850
:100080000301000803010008030100080301000840
:100090000301000803010008030100080301000830
:1000A0000301000803010008030100080301000820
:1000B0000301000803010008030100080301000810
:1000C0000301000803010008030100080301000800
:1000D00003010008030100080301000803010008F0
:1000E0000301000803010008030100080848004755
:1000F000FEE7FEE7FEE7FEE7FEE7FEE7FEE7FEE7D8
:10010000FEE7FEE703480449044A054B7047000038
:100110004F0500080000002000060020000200201B
:100120000002002028014F0074FF9600B501CF00A7
:10013000E4FFF300FD010001FDFFF300E401CF0047
:10014000B5FF960074014F0028FF0000D800B1FFF2
:100150008CFE6AFF4B0031FF1CFE0DFF030000FF09
:1001600003FE0DFF1C0031FF4BFE6AFF8C00B1FF48
:10017000D8FE000028014F0074FF9600B501CF00A3
:10018000E4FFF300FD010001FDFFF300E401CF00F7
:10019000B5FF960074014F0028FF0000D800B1FFA2
:1001A0008CFE6AFF4B0031FF1CFE0DFF030000FFB9
:1001B00003FE0DFF1C0031FF4BFE6AFF8C00B1FFF8
:1001C000D8FE000028014F0074FF9600B501CF0053
:1001D000E4FFF300FD010001FDFFF300E401CF00A7
:1001E000B5FF960074014F0028FF0000D800B1FF52
:1001F0008CFE6AFF4B0031FF1CFE0DFF030000FF69
:1002000003FE0DFF1C0031FF4BFE6AFF8C00B1FFA7
:10021000D8FE000028014F0074FF9600B501CF0002
:10022000E4FFF300FD010001FDFFF300E401CF0056
:10023000B5FF960074014F0028FF0000D800B1FF01
:100240008CFE6AFF4B0031FF1CFE0DFF030000FF18
:1002500003FE0DFF1C0031FF4BFE6AFF8C00B1FF57
:10026000D8FE000028014F0074FF9600B501CF00B2
:10027000E4FFF300FD010001FDFFF300E401CF0006
:10028000B5FF960074014F0028FF0000D800B1FFB1
:100290008CFE6AFF4B0031FF1CFE0DFF030000FFC8
:1002A00003FE0DFF1C0031FF4BFE6AFF8C00B1FF07
:1002B000D8FE000028014F0074FF9600B501CF0062
:1002C000E4FFF300FD010001FDFFF300E401CF00B6
:1002D000B5FF960074014F0028FF0000D800B1FF61
:1002E0008CFE6AFF4B0031FF1CFE0DFF030000FF78
:1002F00003FE0DFF1C0031FF4BFE6AFF8C00B1FFB7
:10030000D8FE000028014F0074FF9600B501CF0011
:10031000E4FFF300FD010001FDFFF300E401CF0065
:10032000B5FF960074014F0028FF0000D800B1FF10
:100330008CFE6AFF4B0031FF1CFE0DFF030000FF27
:1003400003FE0DFF1C0031FF4BFE6AFF8C00B1FF66
:10035000D8FE000028014F0074FF9600B501CF00C1
:10036000E4FFF300FD010001FDFFF300E401CF0015
:10037000B5FF960074014F0028FF0000D800B1FFC0
:100380008CFE6AFF4B0031FF1CFE0DFF030000FFD7
:1003900003FE0DFF1C0031FF4BFE6AFF8C00B1FF16
:1003A000D8FE000028014F0074FF9600B501CF0071
:1003B000E4FFF300FD010001FDFFF300E401CF00C5
:1003C000B5FF960074014F0028FF0000D800B1FF70
:1003D0008CFE6AFF4B0031FF1CFE0DFF030000FF87
:1003E00003FE0DFF1C0031FF4BFE6AFF8C00B1FFC6
:1003F000D8FE000028014F0074FF9600B501CF0021
:10040000E4FFF300FD010001FDFFF300E401CF0074
:10041000B5FF960074014F0028FF0000D800B1FF1F
:100420008CFE6AFF4B0031FF1CFE0DFF030000FF36
:1004300003FE0DFF1C0031FF4BFE6AFF8C00B1FF75
:10044000D8FE000028014F0074FF9600B501CF00D0
:10045000E4FFF300FD010001FDFFF300E401CF0024
:10046000B5FF960074014F0028FF0000D800B1FFCF
:100470008CFE6AFF4B0031FF1CFE0DFF030000FFE6
:1004800003FE0DFF1C0031FF4BFE6AFF8C00B1FF25
:10049000D8FE000028014F0074FF9600B501CF0080
:1004A000E4FFF300FD010001FDFFF300E401CF00D4
:1004B000B5FF960074014F0028FF0000D800B1FF7F
:1004C0008CFE6AFF4B0031FF1CFE0DFF030000FF96
:1004D00003FE0DFF1C0031FF4BFE6AFF8C00B1FFD5
:1004E000D8FE000028014F0074FF9600B501CF0030
:1004F000E4FFF300FD010001FDFFF300E401CF0084
:10050000B5FF960074014F0028FF000000000000B6
:10051000FFFFFFFFFFFFFFFF0000010003000600D9
:1005200009000D0011001400170019001A0019002D
:100530001700140011000D0009000600030001005F
:100540000000FFFFFFFFFFFFFFFF000000001C484F
:100550001C494FF00002C2F200024FF00003B3F555
:10056000856F1FDA4FF000044FF00009422C12DAB9
:100570001D1B0DD4B5F57A7F0ADA05EB0006B6F936
:1005800000B004EB0107B7F900C000F00CF8D1444B
:1005900004F10204EAE703EB0208A8F8009003F173
:1005A0000203DCE7FEE70BFB0CFA4FEA2A2ABAF15A
:1005B000000F02D4C0F2000A7047CFF6FF7A7047EE
:0805C000240100080C050008ED
:04000005080000ED02
:00000001FF
