:020000040800F2
:1000000000060020ED000008F1000008F3000008E1
:10001000F5000008F7000008F900000800000000E3
:10002000000000000000000000000000FB000008CD
:10003000FD00000800000000FF00000801010008AA
:100040000301000803010008030100080301000880
:100050000301000803010008030100080301000870
:100060000301000803010008030100080301000860
:100070000301000803010008030100080301000850
:100080000301000803010008030100080301000840
:100090000301000803010008030100080301000830
:1000A0000301000803010008030100080301000820
:1000B0000301000803010008030100080301000810
:1000C0000301000803010008030100080301000800
:1000D00003010008030100080301000803010008F0
:1000E0000301000803010008030100080848004755
:1000F000FEE7FEE7FEE7FEE7FEE7FEE7FEE7FEE7D8
:10010000FEE7FEE703480449044A054B7047000038
:10011000F90800080000002000060020000200206E
:1001200000020020F0FF40008F00AB00AB00650034
:100130001500C5FF7FFF7FFFB0FF0000500081006A
:1001400081005000EBFF9BFF6AFF6AFF9BFFEBFF04
:100150003A006C008100500000009BFF6AFF6AFFBC
:100160009BFFEBFF3A006C0057002500D6FF86FF8F
:1001700055FF55FF86FFD6FF3A006C008100500006
:100180000000B0FF7FFF94FFC5FF150065009600DB
:10019000960065001500C5FF94FF94FFC5FF15008C
:1001A0007A00AB00AB008F004000F0FFBFFFD4FF30
:1001B000F0FF40008F00C000AB007A002A00DBFF98
:1001C000A9FF94FFC5FF150050009600960065003A
:1001D0002A00DBFFA9FFA9FFC5FF00003A006C0061
:1001E00057001000C0FF71FF40FF40FF71FFC0FFCC
:1001F0001000410041001000C0FF71FF40FF55FF9B
:1002000086FFEBFF3A006C006C003A00D6FF86FFD9
:1002100055FF55FF86FFD6FF25006C0057002500CF
:10022000EBFF9BFF6AFF6AFFB0FF15006500AB00A4
:10023000AB007A002A00DBFFA9FF94FFC5FF150081
:100240007A00AB00AB007A002A00C5FF94FF94FF50
:10025000C5FF150065009600960065001500C5FFF6
:1002600094FF94FFC5FF15005000810081003A0003
:10027000EBFF9BFF6AFF55FF86FFD6FF2500570067
:1002800057002500D6FF86FF55FF6AFF9BFFEBFF57
:100290003A00570057002500D6FF86FF55FF55FF4F
:1002A00086FFEBFF3A006C006C0050000000B0FFCE
:1002B00094FF94FFC5FF1500650096009600650049
:1002C0001500C5FF94FF94FFC5FF15007A00AB0031
:1002D000AB008F004000F0FFBFFFBFFFF0FF2A0020
:1002E0007A00AB00AB007A001500C5FF94FF94FFC5
:1002F000C5FF15006500960096007A002A00F0FF01
:10030000BFFFBFFFDBFF2A00650081006C003A00E1
:10031000D6FF86FF55FF55FF86FFD6FF2500570005
:1003200057002500D6FF86FF55FF55FF86FFD6FFF5
:100330003A006C006C003A00EBFF9BFF55FF55FF45
:1003400086FFEBFF3A006C006C003A00EBFF9BFF6E
:100350006AFF6AFF9BFF00005000960096007A003B
:100360002A00DBFFA9FFA9FFDBFF1500650096004F
:10037000960065001500C5FF94FF94FFB0FF0000D4
:1003800050008100810050001500C5FF94FF94FFCC
:10039000C5FF15005000810081003A00EBFF9BFF74
:1003A0006AFF55FF86FFD6FF25005700570025003E
:1003B000D6FF86FF55FF6AFF9BFFEBFF2500570026
:1003C00057002500D6FF86FF55FF55FF9BFFEBFF2B
:1003D0003A008100810050000000B0FF7FFF7FFFE6
:1003E000B0FF000050009600960065001500C5FFA4
:1003F00094FF94FFC5FF15007A00AB00AB007A00B4
:100400002A00F0FFBFFFBFFFF0FF2A007A00AB0019
:10041000960065001500C5FF94FF94FFC5FF150009
:100420006500AB00AB008F004000F0FFBFFFA9FFED
:10043000DBFF150050006C0057001000C0FF71FF7B
:1004400055FF55FF86FFD6FF2500570057002500B2
:10045000D6FF86FF55FF6AFF9BFFEBFF5000810030
:100460006C003A00EBFF9BFF55FF55FF86FFEBFF4B
:100470003A006C006C003A00EBFFB0FF7FFF7FFF9B
:10048000B0FF15006500AB00AB007A002A00DBFF6F
:10049000A9FFA9FFDBFF1500650096009600650027
:1004A0001500C5FF94FF94FFB0FF000050008100CD
:1004B000810050001500C5FF94FF94FFC5FF0000A8
:1004C0005000810081003A00EBFF9BFF6AFF6AFF4A
:1004D00086FFD6FF2500570057002500D6FF9BFF5B
:1004E0006AFF6AFF9BFFEBFF3A006C006C003A006A
:1004F000EBFF9BFF6AFF6AFFB0FF00005000810026
:10050000810050000000B0FF7FFF7FFFB0FFFFFFC2
:1005100000000000000001000100000000000000D9
:10052000FFFFFFFF000000000000010001000000CD
:1005300000000000FFFFFFFF0000000000000100BE
:100540000100000000000000FFFFFFFF00000000AE
:10055000000001000100000000000000FFFFFFFF9D
:100560000000000000000100010000000000000089
:10057000FFFFFFFF0000000000000100010000007D
:1005800000000000FFFFFFFF00000000000001006E
:100590000100000000000000FFFFFFFF000000005E
:1005A000000001000100010000000000FFFFFFFF4C
:1005B000FFFF00000000010001000100000000003A
:1005C000FFFFFFFFFFFF000000000100010001002E
:1005D00000000000FFFFFFFFFFFF00000000010020
:1005E0000100010000000000FFFFFFFFFFFF00000F
:1005F000000001000100010000000000FFFFFFFFFC
:10060000FFFF0000000001000100010000000000E9
:10061000FFFFFFFFFFFF00000000010001000100DD
:1006200000000000FFFFFFFFFFFF000000000100CF
:100630000100010000000000FFFFFFFFFFFF0000BE
:10064000000001000100010000000000FFFFFFFFAB
:10065000FFFF000000000100010001000000000099
:10066000FFFFFFFFFFFF000000000100010001008D
:1006700000000000FFFFFFFFFFFF0000000001007F
:100680000100010000000000FFFFFFFFFFFF00006E
:10069000000001000100010000000000FFFFFFFF5B
:1006A000FFFF000000000100010001000000000049
:1006B000FFFFFFFFFFFF000000000100010001003D
:1006C00000000000FFFFFFFFFFFF0000000001002F
:1006D0000100010000000000FFFFFFFFFFFF00001E
:1006E000000001000100010000000000FFFFFFFF0B
:1006F000FFFF0000000001000100010000000000F9
:10070000FFFFFF00FFFF00000000010001000100EB
:1007100000000000FFFFFFFFFFFF000000000100DE
:100720000100010000000000FFFFFFFFFFFF0000CD
:10073000000001000100010000000000FFFFFFFFBA
:10074000FFFF0000000001000100010000000000A8
:10075000FFFFFFFFFFFF000000000100010001009C
:1007600000000000FFFFFFFFFFFF0000000001008E
:100770000100010000000000FFFFFFFFFFFF00007D
:10078000000001000100010000000000FFFFFFFF6A
:10079000FFFF000000000100010001000000000058
:1007A000FFFFFFFFFFFF000000000100010001004C
:1007B00000000000FFFFFFFFFFFF0000000001003E
:1007C0000100010000000000FFFFFFFFFFFF00002D
:1007D000000001000100010000000000FFFFFFFF1A
:1007E000FFFF000000000100010001000000000008
:1007F000FFFFFFFFFFFF00000000010001000100FC
:1008000000000000FFFFFFFFFFFF000000000100ED
:100810000100010000000000FFFFFFFFFFFF0000DC
:10082000000001000100010000000000FFFFFFFFC9
:10083000FFFF0000000001000100010000000000B7
:10084000FFFFFFFFFFFF00000000010001000100AB
:1008500000000000FFFFFFFFFFFF0000000001009D
:1008600001000100000000000000FFFFFFFF00008A
:100870000000000001000100000000000000FFFF78
:10088000FFFF000000000000010001000000000068
:100890000000FFFFFFFF000000000000010001005A
:1008A000000000000000FFFFFFFF0000000000004C
:1008B00001000100000000000000FFFFFFFF00003A
:1008C0000000000001000100000000000000FFFF28
:1008D000FFFF000000000000010001000000000018
:1008E0000000FFFFFFFF000000000000010001000A
:1008F000000000000000FFFF1C481D494FF00002EF
:10090000C2F200024FF00003B3F5FA6F20DA4FF0A5
:1009100000044FF00009B4F57A7F12DA1D1B0DD4E4
:10092000B5F57A7F0ADA05EB0006B6F900B004EBFC
:100930000107B7F900C000F00CF8D14404F102043B
:10094000E9E703EB0208A8F8009003F10203DBE7F4
:10095000FEE70BFB0CFA4FEA2A2ABAF1000F02D489
:10096000C0F2000A7047CFF6FF7A704724010008F2
:040970000E05000868
:04000005080000ED02
:00000001FF
