S01700004763634170706C69636174696F6E312E737265635B
S11300000C9434000C9446000C9446000C94460066
S11300100C9446000C9446000C9446000C94460044
S11300200C9446000C9446000C9446000C94460034
S11300300C9472000C9446000C9446000C944600F8
S11300400C9446000C9446000C9446000C94460014
S11300500C9446000C945A000C9446000C944600F0
S11300600C9446000C94460011241FBECFEFD8E038
S1130070DEBFCDBF21E0A0E0B1E001C01D92A330FE
S1130080B207E1F70E9473000C94CA000C940000BC
S11300909093C5008093C40088E18093C1008EE0F2
S11300A08093C20008959091C00095FFFCCF809387
S11300B0C60008951F920F920FB60F9211248F93CA
S11300C080917800809301018091790083708093FE
S11300D0020181E0809300018F910F900FBE0F9079
S11300E01F90189518958CE090E00E94480087B105
S11300F08E7F87B98FEF84B910928000E1E8F0E039
S1130100108210928500109284008BE0808384E03A
S113011080936F008BE990E090938900809388002E
S113012090938B0080938A00EAE7F0E088E980836B
S113013080818360808380E480937C0085E0809369
S11301407B00808180628083EEE7F0E080818160C3
S1130150808378949091020180910101869586951F
S113016020E4929F800D112485B980910001882399
S113017089F3F89490910201809101018695869506
S113018020E4929F800D11240E94530010920001DC
S10B01907894E0CFF894FFCF4E
S9030000FC
