:020000020000FC
:040000000C9422003A
:100040000C94610008E00EBF0FEF0DBF44270E9423
:100050005C00569A1FE317BD2227332744270E94CE
:10006000490003E804BD01E005BD01E000936E0016
:100070007894461711F40E944900251719F4159138
:100080002227339517BD3F33A1F70E945C000C94E3
:10009000390044272227EF93FF93E6E0F1E0743222
:1000A00009F47727E70F00E0F01F559165917395EC
:1000B0007395FF91EF9108953327E6ECF0E04395B7
:1000C000089523951895808C99A5B1BCC7D1DBE321
:1000D000EBF1F6FAFDFFFFFEFCF8F4EEE7DFD6CC1D
:1000E000C2B7AB9F9386796C6054483D3329201882
:1000F000110B07030100000205090E141C242E3801
:10010000434E5A66737F0F0210021102120213024D
:10011000140215021602170218021702160215021F
:0A0120001402130212021102100271
:00000001FF
