S01700004763634170706C69636174696F6E312E737265635B
S11300000C9443000C9460000C9460000C94600009
S11300100C9460000C9460000C9460000C946000DC
S11300200C9460000C9460000C9460000C946000CC
S11300300C9460000C944B010C9460000C946000D0
S11300400C9460000C9460000C9460000C946000AC
S11300500C9460000C9460000C9460000C9460009C
S11300600C9460000C94600005A84CCDB2D44EB939
S11300703836A9020C50B9918688083CA6AAAA2A47
S1130080BE000000803F11241FBECFEFD8E0DEBFCA
S1130090CDBF11E0A0E0B1E0E4EFF8E002C00590CC
S11300A00D92AE30B107D9F722E0AEE0B1E001C065
S11300B01D92A933B207E1F70E94FD000C94780465
S11300C00C9400008F929F92AF92BF92CF92DF92D6
S11300D0EF92FF920F931F93CF93DF93E12CF12CB8
S11300E087E0E816F1040CF068C0E701CC0FDD1FCF
S11300F0FE01E050FF4F8081918144E1489F9001CF
S1130100499F300D1124032E000C440B550B60E461
S113011072E48FE090E00E9456046901CD5EDE4FE8
S11301203983288300E010E0043111050CF041C04C
S1130130B801012E000C880B990B0E94A4022BED30
S11301403FE049EC50E40E94350320E030E040EA0F
S113015051E40E94FA010E94A20320E030E040E052
S11301605FE30E94350320E030E040E05FE30E945B
S11301708E014B015C01B6010D2C000C880B990B10
S11301800E94A402A50194010E94350324E12E9D3E
S1130190E0012F9DD00D1124C00FD11FCC0FDD1F06
S11301A0CF5DDE4F0E946C02798368830F5F1F4F1F
S11301B0BBCF8FEFE81AF80A93CF82E880938000D0
S11301C089E18093810081E080936F008091130125
S11301D090911401909387008093860082E084B903
S11301E0DF91CF911F910F91FF90EF90DF90CF900F
S11301F0BF90AF909F908F9008950E946200789472
S113020060910E0170910F01072E000C880B990B61
S11302100E94A4026B017C01C0911101D0911201D2
S1130220FE01EE0FFF1FE050FF4F60817181072E2A
S1130230000C880B990B0E94A40220E030E040E0FF
S11302405FE30E9435039B01AC01C701B6010E9424
S113025030038823ACF22196D0931201C09311018C
S113026010920F0110920E0110921001279721F4A1
S11302701092120110921101E0911101F0911201FA
S1130280EE0FFF1FED5EFE4F8081918190938700FA
S113029080938600B5CF1F920F920FB60F92112450
S11302A02F933F938F939F93EF93FF93809110012C
S11302B0843159F41092100180910E0190910F0134
S11302C0019690930F0180930E01209111013091BA
S11302D012018091100194E1929FF001939FF00D1F
S11302E01124E80FF11DEE0FFF1FEF5DFE4F80811B
S11302F091819093890080938800809110018F5F91
S113030080931001FF91EF919F918F913F912F91D5
S11303100F900FBE0F901F9018955058BB27AA2717
S11303200E94A5010C94F6020E94E80238F00E9493
S1130330EF0220F039F49F3F19F426F40C94E502FF
S11303400EF4E095E7FB0C94DF02E92F0E9407030B
S113035058F3BA17620773078407950720F079F4F6
S1130360A6F50C9429030EF4E0950B2EBA2FA02DBC
S11303700B01B90190010C01CA01A0011124FF274E
S1130380591B99F0593F50F4503E68F11A16F04049
S1130390A22F232F342F4427585FF3CF4695379548
S11303A02795A795F0405395C9F77EF41F16BA0B0D
S11303B0620B730B840BBAF09150A1F0FF0FBB1FBB
S11303C0661F771F881FC2F70EC0BA0F621F731F04
S11303D0841F48F4879577956795B795F7959E3F61
S11303E008F0B0CF9395880F08F09927EE0F9795F2
S11303F0879508950E940E020C94F6020E94EF0263
S113040058F00E94E80240F029F45F3F29F00C9470
S1130410DF0251110C942A030C94E5020E94070395
S113042068F39923B1F3552391F3951B550BBB271F
S1130430AA2762177307840738F09F5F5F4F220F64
S1130440331F441FAA1FA9F335D00E2E3AF0E0E85B
S113045032D091505040E695001CCAF72BD0FE2FA5
S113046029D0660F771F881FBB1F26173707480739
S1130470AB07B0E809F0BB0B802DBF01FF279358F1
S11304805F4F3AF09E3F510578F00C94DF020C94D4
S11304902A035F3FE4F3983ED4F3869577956795F6
S11304A0B795F7959F5FC9F7880F911D9695879526
S11304B097F90895E1E0660F771F881FBB1F621745
S11304C073078407BA0720F0621B730B840BBA0B03
S11304D0EE1F88F7E09508950E9473026894B111A5
S11304E00C942A0308950E940F0388F09F5798F0F4
S11304F0B92F9927B751B0F0E1F0660F771F881F25
S1130500991F1AF0BA95C9F714C0B13091F00E943E
S11305102903B1E008950C942903672F782F8827C5
S1130520B85F39F0B93FCCF3869577956795B39565
S1130530D9F73EF490958095709561957F4F8F4FD4
S11305409F4F0895E89409C097FB3EF490958095D9
S1130550709561957F4F8F4F9F4F9923A9F0F92F85
S113056096E9BB279395F695879577956795B79503
S1130570F111F8CFFAF4BB0F11F460FF1BC06F5FE9
S11305807F4F8F4F9F4F16C0882311F096E911C0FB
S1130590772321F09EE8872F762F05C0662371F01C
S11305A096E8862F70E060E02AF09A95660F771F30
S11305B0881FDAF7880F9695879597F9089597F924
S11305C09F6780E870E060E008959FEF80EC0895F5
S11305D000240A941616170618060906089500241E
S11305E00A9412161306140605060895092E039498
S11305F0000C11F4882352F0BB0F40F4BF2B11F40C
S113060060FF04C06F5F7F4F8F4F9F4F089557FD6A
S11306109058440F551F59F05F3F71F04795880F6C
S113062097FB991F61F09F3F79F087950895121603
S113063013061406551FF2CF4695F1DF08C01616AF
S113064017061806991FF1CF869571056105089460
S11306500895E894BB2766277727CB0197F9089577
S11306600E94AA0308F48FEF08950E9448030C9493
S1130670F6020E94E80238F00E94EF0220F095236F
S113068011F00C94DF020C94E50211240C942A035B
S11306900E94070370F3959FC1F3950F50E0551F17
S11306A0629FF001729FBB27F00DB11D639FAA27C3
S11306B0F00DB11DAA1F649F6627B00DA11D661F12
S11306C0829F2227B00DA11D621F739FB00DA11D33
S11306D0621F839FA00D611D221F749F3327A00DED
S11306E0611D231F849F600D211D822F762F6A2F89
S11306F011249F5750409AF0F1F088234AF0EE0FEE
S1130700FF1FBB1F661F771F881F91505040A9F71A
S11307109E3F510580F00C94DF020C942A035F3F46
S1130720E4F3983ED4F3869577956795B795F79556
S1130730E7959F5FC1F7FE2B880F911D96958795CE
S113074097F908959F930E94D0030F9007FCEE5FE2
S11307500C94F903990F0008550FAA0BE0E8FEEF7B
S113076016161706E807F907C0F012161306E40771
S1130770F50798F0621B730B840B950B39F40A266A
S113078061F0232B242B252B21F408950A2609F448
S1130790A140A6958FEF811D811D08950C94E5025B
S11307A00E940F03D8F3E894E0E0BB279F57F0F0D2
S11307B02AED3FE049EC06C0EE0FBB0F661F771F22
S11307C0881F28F0B23A62077307840728F0B25AE8
S11307D0620B730B840BE3959A9572F7803830F4AF
S11307E09A95BB0F661F771F881FD2F790480C9409
S11307F00F04EF93E0FF07C0A2EA2AED3FE049ECC3
S11308005FEB0E94A5010E94F6020F90039401FC85
S11308109058E8E6F0E00C941B049F3F31F09150AF
S113082020F4879577956795B795880F911D9695D0
S1130830879597F908959F938F937F936F93FF9371
S1130840EF939B01AC010E943503EF91FF910E944D
S11308502F042F913F914F915F910C943503DF93B7
S1130860CF931F930F93FF92EF92DF927B018C0142
S1130870689406C0DA2EEF010E944803FE01E89452
S1130880A5912591359145915591A6F3EF010E94CB
S1130890A501FE019701A801DA9469F7DF90EF90B2
S11308A0FF900F911F91CF91DF910895A1E21A2E2D
S11308B0AA1BBB1BFD010DC0AA1FBB1FEE1FFF1F00
S11308C0A217B307E407F50720F0A21BB30BE40B50
S11308D0F50B661F771F881F991F1A9469F7609597
S11308E07095809590959B01AC01BD01CF01089551
S10708F0F894FFCFA6
S11108F4F0000E012C01400168019001C201C8
S9030000FC
